{
  "contractName": "MyContract",
  "abi": [
    {
      "inputs": [],
      "stateMutability": "nonpayable",
      "type": "constructor"
    },
    {
      "anonymous": false,
      "inputs": [
        {
          "indexed": false,
          "internalType": "string",
          "name": "results",
          "type": "string"
        }
      ],
      "name": "AllDoneEvent",
      "type": "event"
    },
    {
      "anonymous": false,
      "inputs": [
        {
          "indexed": false,
          "internalType": "string",
          "name": "req",
          "type": "string"
        }
      ],
      "name": "MyDataRequestEvent",
      "type": "event"
    },
    {
      "inputs": [
        {
          "internalType": "string",
          "name": "data",
          "type": "string"
        }
      ],
      "name": "process",
      "outputs": [],
      "stateMutability": "nonpayable",
      "type": "function"
    },
    {
      "inputs": [
        {
          "internalType": "string",
          "name": "someOtherData",
          "type": "string"
        }
      ],
      "name": "results",
      "outputs": [],
      "stateMutability": "nonpayable",
      "type": "function"
    }
  ],
  "bytecode": "0x608060405234801561001057600080fd5b506104e6806100206000396000f3fe608060405234801561001057600080fd5b50600436106100365760003560e01c80634b13d17d1461003b578063b96613ba14610057575b600080fd5b6100556004803603810190610050919061027f565b610073565b005b610071600480360381019061006c919061027f565b6100cc565b005b7f0f684efffa399072be422ec837b77b8228ad05d2e5c4bf69c5fa2ae887203d9b816040516020016100a5919061038e565b6040516020818303038152906040526040516100c1919061040d565b60405180910390a150565b7f7bea8dd30a05bc2ce21e99f15c8abf3651e1948c4f66ab80320139d31688edc1816040516020016100fe919061047b565b60405160208183030381529060405260405161011a919061040d565b60405180910390a150565b6000604051905090565b600080fd5b600080fd5b600080fd5b600080fd5b6000601f19601f8301169050919050565b7f4e487b7100000000000000000000000000000000000000000000000000000000600052604160045260246000fd5b61018c82610143565b810181811067ffffffffffffffff821117156101ab576101aa610154565b5b80604052505050565b60006101be610125565b90506101ca8282610183565b919050565b600067ffffffffffffffff8211156101ea576101e9610154565b5b6101f382610143565b9050602081019050919050565b82818337600083830152505050565b600061022261021d846101cf565b6101b4565b90508281526020810184848401111561023e5761023d61013e565b5b610249848285610200565b509392505050565b600082601f83011261026657610265610139565b5b813561027684826020860161020f565b91505092915050565b6000602082840312156102955761029461012f565b5b600082013567ffffffffffffffff8111156102b3576102b2610134565b5b6102bf84828501610251565b91505092915050565b7f6261736564206f6e202700000000000000000000000000000000000000000000815250565b600081519050919050565b600081905092915050565b60005b83811015610322578082015181840152602081019050610307565b83811115610331576000848401525b50505050565b6000610342826102ee565b61034c81856102f9565b935061035c818560208601610304565b80840191505092915050565b7f272c2077652772652066696e616c6c7920646f6e650000000000000000000000815250565b6000610399826102c8565b600a820191506103a98284610337565b91506103b482610368565b60158201915081905092915050565b600082825260208201905092915050565b60006103df826102ee565b6103e981856103c3565b93506103f9818560208601610304565b61040281610143565b840191505092915050565b6000602082019050818103600083015261042781846103d4565b905092915050565b7f676574206d65206461746120746f2070726f6365737320270000000000000000815250565b7f2700000000000000000000000000000000000000000000000000000000000000815250565b60006104868261042f565b6018820191506104968284610337565b91506104a182610455565b6001820191508190509291505056fea26469706673582212208b3f28e9d2ef5ab9bf8a212e4e4c776b2e2cfbeaa219e80ad8b90efc2b50fef364736f6c634300080d0033",
  "immutableReferences": {},
  "source": "// SPDX-License-Identifier: MIT\npragma solidity >=0.4.22 <0.9.0;\n\n// https://medium.com/haloblock/deploy-your-own-smart-contract-with-truffle-and-ganache-cli-beginner-tutorial-c46bce0bd01e\n\ncontract MyContract {\n  \n  constructor() public {\n  }\n\n  event MyDataRequestEvent(string req);\n\n  event AllDoneEvent(string results);\n\n  function process(string memory data) public {\n    // ...\n    emit MyDataRequestEvent(string.concat(\"get me data to process '\", data, \"'\"));\n  }\n\n  function results(string memory someOtherData) public {\n    emit AllDoneEvent(string.concat(\"based on '\", someOtherData, \"', we're finally done\"));\n  }\n}\n",
  "sourcePath": "/Users/wvw/git/n3/blockiot-cds/example_oracle/contract/contracts/MyContract.sol",
  "compiler": {
    "name": "solc",
    "version": "0.8.13+commit.abaa5c0e.Emscripten.clang"
  },
  "schemaVersion": "3.4.16",
  "updatedAt": "2023-11-01T20:42:10.133Z",
  "networkType": "ethereum",
  "devdoc": {
    "kind": "dev",
    "methods": {},
    "version": 1
  },
  "userdoc": {
    "kind": "user",
    "methods": {},
    "version": 1
  }
}