{
  "contractName": "MyContract",
  "abi": [
    {
      "inputs": [],
      "stateMutability": "nonpayable",
      "type": "constructor"
    },
    {
      "anonymous": false,
      "inputs": [
        {
          "indexed": false,
          "internalType": "uint256",
          "name": "nr",
          "type": "uint256"
        }
      ],
      "name": "MyEvent",
      "type": "event"
    },
    {
      "inputs": [],
      "name": "hi",
      "outputs": [],
      "stateMutability": "nonpayable",
      "type": "function"
    }
  ],
  "bytecode": "0x608060405234801561001057600080fd5b50610103806100206000396000f3fe6080604052348015600f57600080fd5b506004361060285760003560e01c8063a99dca3f14602d575b600080fd5b60336035565b005b7f6c2b4666ba8da5a95717621d879a77de725f3d816709b9cbe9f059b8f875e284607b6040516063919060b4565b60405180910390a1565b6000819050919050565b6000819050919050565b6000819050919050565b600060a0609c609884606d565b6081565b6077565b9050919050565b60ae81608b565b82525050565b600060208201905060c7600083018460a7565b9291505056fea2646970667358221220d176466a5e399d9eb8f5f6389ac748fbd7967d90ffacc131b8f3b9213bbf9bba64736f6c634300080d0033",
  "immutableReferences": {},
  "source": "// SPDX-License-Identifier: MIT\npragma solidity >=0.4.22 <0.9.0;\n\n// https://medium.com/haloblock/deploy-your-own-smart-contract-with-truffle-and-ganache-cli-beginner-tutorial-c46bce0bd01e\n\ncontract MyContract {\n  \n  constructor() public {\n  }\n\n  event MyEvent(uint nr);\n\n  function hi() public {\n    emit MyEvent(123);\n    // return (\"Hello World\");\n  }\n}\n",
  "sourcePath": "/Users/wvw/git/n3/blockiot-cds/SmartContractDemo/contract/contracts/MyContract.sol",
  "compiler": {
    "name": "solc",
    "version": "0.8.13+commit.abaa5c0e.Emscripten.clang"
  },
  "schemaVersion": "3.4.16",
  "updatedAt": "2023-11-01T19:50:41.524Z",
  "networkType": "ethereum",
  "devdoc": {
    "kind": "dev",
    "methods": {},
    "version": 1
  },
  "userdoc": {
    "kind": "user",
    "methods": {},
    "version": 1
  }
}