{
  "contractName": "MyContract",
  "abi": [
    {
      "inputs": [],
      "stateMutability": "nonpayable",
      "type": "constructor"
    },
    {
      "anonymous": false,
      "inputs": [
        {
          "components": [
            {
              "internalType": "string",
              "name": "field1",
              "type": "string"
            },
            {
              "internalType": "string",
              "name": "field2",
              "type": "string"
            }
          ],
          "indexed": false,
          "internalType": "struct MyContract.ExampleAllDone",
          "name": "results",
          "type": "tuple"
        }
      ],
      "name": "AllDoneEvent",
      "type": "event"
    },
    {
      "anonymous": false,
      "inputs": [
        {
          "components": [
            {
              "internalType": "string",
              "name": "field1",
              "type": "string"
            },
            {
              "internalType": "string",
              "name": "field2",
              "type": "string"
            }
          ],
          "indexed": false,
          "internalType": "struct MyContract.ExampleOracleRequest",
          "name": "req",
          "type": "tuple"
        }
      ],
      "name": "MyDataRequestEvent",
      "type": "event"
    },
    {
      "inputs": [
        {
          "components": [
            {
              "internalType": "string",
              "name": "field1",
              "type": "string"
            },
            {
              "internalType": "string",
              "name": "field2",
              "type": "string"
            }
          ],
          "internalType": "struct MyContract.ExampleParam",
          "name": "data",
          "type": "tuple"
        }
      ],
      "name": "process",
      "outputs": [],
      "stateMutability": "nonpayable",
      "type": "function"
    },
    {
      "inputs": [
        {
          "components": [
            {
              "internalType": "string",
              "name": "field1",
              "type": "string"
            },
            {
              "internalType": "string",
              "name": "field2",
              "type": "string"
            }
          ],
          "internalType": "struct MyContract.ExampleOracleResponse",
          "name": "response",
          "type": "tuple"
        }
      ],
      "name": "results",
      "outputs": [],
      "stateMutability": "nonpayable",
      "type": "function"
    }
  ],
  "bytecode": "0x608060405234801561001057600080fd5b506105af806100206000396000f3fe608060405234801561001057600080fd5b50600436106100365760003560e01c80638c3a75151461003b578063b99e361014610057575b600080fd5b6100556004803603810190610050919061030b565b610073565b005b610071600480360381019061006c91906103dc565b6100c9565b005b7fd1514681daa1b786b4924a56da6484651d92db5c5988a8be5c4c24747cd7de0c60405180604001604052808360000151815260200183602001518152506040516100be91906104f1565b60405180910390a150565b7ffe834ad4de27c7a90f5e76268abc7e3437d5f929a2a8c567af6914ed29480ec860405180604001604052808360000151815260200183602001518152506040516101149190610557565b60405180910390a150565b6000604051905090565b600080fd5b600080fd5b600080fd5b6000601f19601f8301169050919050565b7f4e487b7100000000000000000000000000000000000000000000000000000000600052604160045260246000fd5b61018182610138565b810181811067ffffffffffffffff821117156101a05761019f610149565b5b80604052505050565b60006101b361011f565b90506101bf8282610178565b919050565b600080fd5b600080fd5b600080fd5b600067ffffffffffffffff8211156101ee576101ed610149565b5b6101f782610138565b9050602081019050919050565b82818337600083830152505050565b6000610226610221846101d3565b6101a9565b905082815260208101848484011115610242576102416101ce565b5b61024d848285610204565b509392505050565b600082601f83011261026a576102696101c9565b5b813561027a848260208601610213565b91505092915050565b60006040828403121561029957610298610133565b5b6102a360406101a9565b9050600082013567ffffffffffffffff8111156102c3576102c26101c4565b5b6102cf84828501610255565b600083015250602082013567ffffffffffffffff8111156102f3576102f26101c4565b5b6102ff84828501610255565b60208301525092915050565b60006020828403121561032157610320610129565b5b600082013567ffffffffffffffff81111561033f5761033e61012e565b5b61034b84828501610283565b91505092915050565b60006040828403121561036a57610369610133565b5b61037460406101a9565b9050600082013567ffffffffffffffff811115610394576103936101c4565b5b6103a084828501610255565b600083015250602082013567ffffffffffffffff8111156103c4576103c36101c4565b5b6103d084828501610255565b60208301525092915050565b6000602082840312156103f2576103f1610129565b5b600082013567ffffffffffffffff8111156104105761040f61012e565b5b61041c84828501610354565b91505092915050565b600081519050919050565b600082825260208201905092915050565b60005b8381101561045f578082015181840152602081019050610444565b8381111561046e576000848401525b50505050565b600061047f82610425565b6104898185610430565b9350610499818560208601610441565b6104a281610138565b840191505092915050565b600060408301600083015184820360008601526104ca8282610474565b915050602083015184820360208601526104e48282610474565b9150508091505092915050565b6000602082019050818103600083015261050b81846104ad565b905092915050565b600060408301600083015184820360008601526105308282610474565b9150506020830151848203602086015261054a8282610474565b9150508091505092915050565b600060208201905081810360008301526105718184610513565b90509291505056fea26469706673582212201480e6e12ae11bda92a4687378f498332adf395f7e1911f1f58bf499051722f564736f6c634300080d0033",
  "immutableReferences": {},
  "source": "// SPDX-License-Identifier: MIT\npragma solidity >=0.4.22 <0.9.0;\n\n// https://medium.com/haloblock/deploy-your-own-smart-contract-with-truffle-and-ganache-cli-beginner-tutorial-c46bce0bd01e\n\ncontract MyContract {\n  \n  constructor() public {\n  }\n\n  struct ExampleParam {\n    string field1;\n    string field2;\n  }\n\n  struct ExampleOracleRequest {\n    string field1;\n    string field2;\n  }\n\n  struct ExampleOracleResponse {\n    string field1;\n    string field2;\n  }\n\n  struct ExampleAllDone {\n    string field1;\n    string field2;\n  }\n\n  event MyDataRequestEvent(ExampleOracleRequest req);\n\n  event AllDoneEvent(ExampleAllDone results);\n\n  function process(ExampleParam memory data) public {\n    // ...\n    emit MyDataRequestEvent(ExampleOracleRequest({ field1: data.field1, field2: data.field2 }));\n  }\n\n  function results(ExampleOracleResponse memory response) public {\n    // ...\n    emit AllDoneEvent(ExampleAllDone({ field1: response.field1, field2: response.field2 }));\n  }\n}\n",
  "sourcePath": "/Users/wvw/git/n3/blockiot-cds/example_oracle/contract/contracts/MyContract.sol",
  "compiler": {
    "name": "solc",
    "version": "0.8.13+commit.abaa5c0e.Emscripten.clang"
  },
  "schemaVersion": "3.4.16",
  "updatedAt": "2023-11-08T15:47:43.008Z",
  "networkType": "ethereum",
  "devdoc": {
    "kind": "dev",
    "methods": {},
    "version": 1
  },
  "userdoc": {
    "kind": "user",
    "methods": {},
    "version": 1
  }
}