{
  "contractName": "ServReqContract",
  "abi": [
    {
      "inputs": [],
      "stateMutability": "nonpayable",
      "type": "constructor"
    },
    {
      "anonymous": false,
      "inputs": [
        {
          "components": [
            {
              "components": [
                {
                  "components": [
                    {
                      "internalType": "string",
                      "name": "concept",
                      "type": "string"
                    },
                    {
                      "internalType": "bool",
                      "name": "exists",
                      "type": "bool"
                    }
                  ],
                  "internalType": "struct ServReqContract.Medication[]",
                  "name": "medication",
                  "type": "tuple[]"
                },
                {
                  "components": [
                    {
                      "internalType": "string",
                      "name": "status",
                      "type": "string"
                    },
                    {
                      "internalType": "uint256",
                      "name": "code",
                      "type": "uint256"
                    },
                    {
                      "internalType": "bool",
                      "name": "exists",
                      "type": "bool"
                    }
                  ],
                  "internalType": "struct ServReqContract.Procedure",
                  "name": "eligibleTransplant",
                  "type": "tuple"
                },
                {
                  "internalType": "bool",
                  "name": "exists",
                  "type": "bool"
                }
              ],
              "internalType": "struct ServReqContract.MedicationRequest",
              "name": "request",
              "type": "tuple"
            },
            {
              "internalType": "string",
              "name": "outcome",
              "type": "string"
            }
          ],
          "indexed": false,
          "internalType": "struct ServReqContract.CoverageEligibilityResponse",
          "name": "response",
          "type": "tuple"
        }
      ],
      "name": "Response",
      "type": "event"
    },
    {
      "inputs": [
        {
          "components": [
            {
              "internalType": "string",
              "name": "purpose",
              "type": "string"
            },
            {
              "components": [
                {
                  "components": [
                    {
                      "internalType": "string",
                      "name": "concept",
                      "type": "string"
                    },
                    {
                      "internalType": "bool",
                      "name": "exists",
                      "type": "bool"
                    }
                  ],
                  "internalType": "struct ServReqContract.Medication[]",
                  "name": "medication",
                  "type": "tuple[]"
                },
                {
                  "components": [
                    {
                      "internalType": "string",
                      "name": "status",
                      "type": "string"
                    },
                    {
                      "internalType": "uint256",
                      "name": "code",
                      "type": "uint256"
                    },
                    {
                      "internalType": "bool",
                      "name": "exists",
                      "type": "bool"
                    }
                  ],
                  "internalType": "struct ServReqContract.Procedure",
                  "name": "eligibleTransplant",
                  "type": "tuple"
                },
                {
                  "internalType": "bool",
                  "name": "exists",
                  "type": "bool"
                }
              ],
              "internalType": "struct ServReqContract.MedicationRequest[]",
              "name": "item",
              "type": "tuple[]"
            },
            {
              "components": [
                {
                  "internalType": "string",
                  "name": "id",
                  "type": "string"
                },
                {
                  "components": [
                    {
                      "components": [
                        {
                          "internalType": "string",
                          "name": "status",
                          "type": "string"
                        },
                        {
                          "internalType": "uint256",
                          "name": "code",
                          "type": "uint256"
                        },
                        {
                          "internalType": "bool",
                          "name": "exists",
                          "type": "bool"
                        }
                      ],
                      "internalType": "struct ServReqContract.Procedure",
                      "name": "procedure",
                      "type": "tuple"
                    },
                    {
                      "components": [
                        {
                          "internalType": "string",
                          "name": "insurer",
                          "type": "string"
                        },
                        {
                          "internalType": "string",
                          "name": "class",
                          "type": "string"
                        },
                        {
                          "internalType": "string",
                          "name": "status",
                          "type": "string"
                        },
                        {
                          "internalType": "bool",
                          "name": "exists",
                          "type": "bool"
                        }
                      ],
                      "internalType": "struct ServReqContract.Coverage",
                      "name": "insurance",
                      "type": "tuple"
                    },
                    {
                      "internalType": "bool",
                      "name": "exists",
                      "type": "bool"
                    }
                  ],
                  "internalType": "struct ServReqContract.Claim[]",
                  "name": "subjectOf",
                  "type": "tuple[]"
                },
                {
                  "components": [
                    {
                      "internalType": "string",
                      "name": "insurer",
                      "type": "string"
                    },
                    {
                      "internalType": "string",
                      "name": "class",
                      "type": "string"
                    },
                    {
                      "internalType": "string",
                      "name": "status",
                      "type": "string"
                    },
                    {
                      "internalType": "bool",
                      "name": "exists",
                      "type": "bool"
                    }
                  ],
                  "internalType": "struct ServReqContract.Coverage[]",
                  "name": "policyHolderOf",
                  "type": "tuple[]"
                },
                {
                  "internalType": "bool",
                  "name": "exists",
                  "type": "bool"
                }
              ],
              "internalType": "struct ServReqContract.Patient",
              "name": "patient",
              "type": "tuple"
            },
            {
              "components": [
                {
                  "components": [
                    {
                      "internalType": "string",
                      "name": "concept",
                      "type": "string"
                    },
                    {
                      "internalType": "bool",
                      "name": "exists",
                      "type": "bool"
                    }
                  ],
                  "internalType": "struct ServReqContract.Medication[]",
                  "name": "medication",
                  "type": "tuple[]"
                },
                {
                  "components": [
                    {
                      "internalType": "string",
                      "name": "status",
                      "type": "string"
                    },
                    {
                      "internalType": "uint256",
                      "name": "code",
                      "type": "uint256"
                    },
                    {
                      "internalType": "bool",
                      "name": "exists",
                      "type": "bool"
                    }
                  ],
                  "internalType": "struct ServReqContract.Procedure",
                  "name": "eligibleTransplant",
                  "type": "tuple"
                },
                {
                  "internalType": "bool",
                  "name": "exists",
                  "type": "bool"
                }
              ],
              "internalType": "struct ServReqContract.MedicationRequest",
              "name": "immunoTherapyItem",
              "type": "tuple"
            }
          ],
          "internalType": "struct ServReqContract.CoverageEligibilityRequest",
          "name": "req",
          "type": "tuple"
        }
      ],
      "name": "execute",
      "outputs": [],
      "stateMutability": "nonpayable",
      "type": "function"
    },
    {
      "inputs": [
        {
          "components": [
            {
              "internalType": "string",
              "name": "purpose",
              "type": "string"
            },
            {
              "components": [
                {
                  "components": [
                    {
                      "internalType": "string",
                      "name": "concept",
                      "type": "string"
                    },
                    {
                      "internalType": "bool",
                      "name": "exists",
                      "type": "bool"
                    }
                  ],
                  "internalType": "struct ServReqContract.Medication[]",
                  "name": "medication",
                  "type": "tuple[]"
                },
                {
                  "components": [
                    {
                      "internalType": "string",
                      "name": "status",
                      "type": "string"
                    },
                    {
                      "internalType": "uint256",
                      "name": "code",
                      "type": "uint256"
                    },
                    {
                      "internalType": "bool",
                      "name": "exists",
                      "type": "bool"
                    }
                  ],
                  "internalType": "struct ServReqContract.Procedure",
                  "name": "eligibleTransplant",
                  "type": "tuple"
                },
                {
                  "internalType": "bool",
                  "name": "exists",
                  "type": "bool"
                }
              ],
              "internalType": "struct ServReqContract.MedicationRequest[]",
              "name": "item",
              "type": "tuple[]"
            },
            {
              "components": [
                {
                  "internalType": "string",
                  "name": "id",
                  "type": "string"
                },
                {
                  "components": [
                    {
                      "components": [
                        {
                          "internalType": "string",
                          "name": "status",
                          "type": "string"
                        },
                        {
                          "internalType": "uint256",
                          "name": "code",
                          "type": "uint256"
                        },
                        {
                          "internalType": "bool",
                          "name": "exists",
                          "type": "bool"
                        }
                      ],
                      "internalType": "struct ServReqContract.Procedure",
                      "name": "procedure",
                      "type": "tuple"
                    },
                    {
                      "components": [
                        {
                          "internalType": "string",
                          "name": "insurer",
                          "type": "string"
                        },
                        {
                          "internalType": "string",
                          "name": "class",
                          "type": "string"
                        },
                        {
                          "internalType": "string",
                          "name": "status",
                          "type": "string"
                        },
                        {
                          "internalType": "bool",
                          "name": "exists",
                          "type": "bool"
                        }
                      ],
                      "internalType": "struct ServReqContract.Coverage",
                      "name": "insurance",
                      "type": "tuple"
                    },
                    {
                      "internalType": "bool",
                      "name": "exists",
                      "type": "bool"
                    }
                  ],
                  "internalType": "struct ServReqContract.Claim[]",
                  "name": "subjectOf",
                  "type": "tuple[]"
                },
                {
                  "components": [
                    {
                      "internalType": "string",
                      "name": "insurer",
                      "type": "string"
                    },
                    {
                      "internalType": "string",
                      "name": "class",
                      "type": "string"
                    },
                    {
                      "internalType": "string",
                      "name": "status",
                      "type": "string"
                    },
                    {
                      "internalType": "bool",
                      "name": "exists",
                      "type": "bool"
                    }
                  ],
                  "internalType": "struct ServReqContract.Coverage[]",
                  "name": "policyHolderOf",
                  "type": "tuple[]"
                },
                {
                  "internalType": "bool",
                  "name": "exists",
                  "type": "bool"
                }
              ],
              "internalType": "struct ServReqContract.Patient",
              "name": "patient",
              "type": "tuple"
            },
            {
              "components": [
                {
                  "components": [
                    {
                      "internalType": "string",
                      "name": "concept",
                      "type": "string"
                    },
                    {
                      "internalType": "bool",
                      "name": "exists",
                      "type": "bool"
                    }
                  ],
                  "internalType": "struct ServReqContract.Medication[]",
                  "name": "medication",
                  "type": "tuple[]"
                },
                {
                  "components": [
                    {
                      "internalType": "string",
                      "name": "status",
                      "type": "string"
                    },
                    {
                      "internalType": "uint256",
                      "name": "code",
                      "type": "uint256"
                    },
                    {
                      "internalType": "bool",
                      "name": "exists",
                      "type": "bool"
                    }
                  ],
                  "internalType": "struct ServReqContract.Procedure",
                  "name": "eligibleTransplant",
                  "type": "tuple"
                },
                {
                  "internalType": "bool",
                  "name": "exists",
                  "type": "bool"
                }
              ],
              "internalType": "struct ServReqContract.MedicationRequest",
              "name": "immunoTherapyItem",
              "type": "tuple"
            }
          ],
          "internalType": "struct ServReqContract.CoverageEligibilityRequest",
          "name": "req",
          "type": "tuple"
        },
        {
          "components": [
            {
              "components": [
                {
                  "internalType": "string",
                  "name": "status",
                  "type": "string"
                },
                {
                  "internalType": "uint256",
                  "name": "code",
                  "type": "uint256"
                },
                {
                  "internalType": "bool",
                  "name": "exists",
                  "type": "bool"
                }
              ],
              "internalType": "struct ServReqContract.Procedure",
              "name": "procedure",
              "type": "tuple"
            },
            {
              "components": [
                {
                  "internalType": "string",
                  "name": "insurer",
                  "type": "string"
                },
                {
                  "internalType": "string",
                  "name": "class",
                  "type": "string"
                },
                {
                  "internalType": "string",
                  "name": "status",
                  "type": "string"
                },
                {
                  "internalType": "bool",
                  "name": "exists",
                  "type": "bool"
                }
              ],
              "internalType": "struct ServReqContract.Coverage",
              "name": "insurance",
              "type": "tuple"
            },
            {
              "internalType": "bool",
              "name": "exists",
              "type": "bool"
            }
          ],
          "internalType": "struct ServReqContract.Claim[]",
          "name": "claims",
          "type": "tuple[]"
        }
      ],
      "name": "externalServiceResponse1",
      "outputs": [],
      "stateMutability": "nonpayable",
      "type": "function"
    },
    {
      "inputs": [
        {
          "components": [
            {
              "internalType": "string",
              "name": "purpose",
              "type": "string"
            },
            {
              "components": [
                {
                  "components": [
                    {
                      "internalType": "string",
                      "name": "concept",
                      "type": "string"
                    },
                    {
                      "internalType": "bool",
                      "name": "exists",
                      "type": "bool"
                    }
                  ],
                  "internalType": "struct ServReqContract.Medication[]",
                  "name": "medication",
                  "type": "tuple[]"
                },
                {
                  "components": [
                    {
                      "internalType": "string",
                      "name": "status",
                      "type": "string"
                    },
                    {
                      "internalType": "uint256",
                      "name": "code",
                      "type": "uint256"
                    },
                    {
                      "internalType": "bool",
                      "name": "exists",
                      "type": "bool"
                    }
                  ],
                  "internalType": "struct ServReqContract.Procedure",
                  "name": "eligibleTransplant",
                  "type": "tuple"
                },
                {
                  "internalType": "bool",
                  "name": "exists",
                  "type": "bool"
                }
              ],
              "internalType": "struct ServReqContract.MedicationRequest[]",
              "name": "item",
              "type": "tuple[]"
            },
            {
              "components": [
                {
                  "internalType": "string",
                  "name": "id",
                  "type": "string"
                },
                {
                  "components": [
                    {
                      "components": [
                        {
                          "internalType": "string",
                          "name": "status",
                          "type": "string"
                        },
                        {
                          "internalType": "uint256",
                          "name": "code",
                          "type": "uint256"
                        },
                        {
                          "internalType": "bool",
                          "name": "exists",
                          "type": "bool"
                        }
                      ],
                      "internalType": "struct ServReqContract.Procedure",
                      "name": "procedure",
                      "type": "tuple"
                    },
                    {
                      "components": [
                        {
                          "internalType": "string",
                          "name": "insurer",
                          "type": "string"
                        },
                        {
                          "internalType": "string",
                          "name": "class",
                          "type": "string"
                        },
                        {
                          "internalType": "string",
                          "name": "status",
                          "type": "string"
                        },
                        {
                          "internalType": "bool",
                          "name": "exists",
                          "type": "bool"
                        }
                      ],
                      "internalType": "struct ServReqContract.Coverage",
                      "name": "insurance",
                      "type": "tuple"
                    },
                    {
                      "internalType": "bool",
                      "name": "exists",
                      "type": "bool"
                    }
                  ],
                  "internalType": "struct ServReqContract.Claim[]",
                  "name": "subjectOf",
                  "type": "tuple[]"
                },
                {
                  "components": [
                    {
                      "internalType": "string",
                      "name": "insurer",
                      "type": "string"
                    },
                    {
                      "internalType": "string",
                      "name": "class",
                      "type": "string"
                    },
                    {
                      "internalType": "string",
                      "name": "status",
                      "type": "string"
                    },
                    {
                      "internalType": "bool",
                      "name": "exists",
                      "type": "bool"
                    }
                  ],
                  "internalType": "struct ServReqContract.Coverage[]",
                  "name": "policyHolderOf",
                  "type": "tuple[]"
                },
                {
                  "internalType": "bool",
                  "name": "exists",
                  "type": "bool"
                }
              ],
              "internalType": "struct ServReqContract.Patient",
              "name": "patient",
              "type": "tuple"
            },
            {
              "components": [
                {
                  "components": [
                    {
                      "internalType": "string",
                      "name": "concept",
                      "type": "string"
                    },
                    {
                      "internalType": "bool",
                      "name": "exists",
                      "type": "bool"
                    }
                  ],
                  "internalType": "struct ServReqContract.Medication[]",
                  "name": "medication",
                  "type": "tuple[]"
                },
                {
                  "components": [
                    {
                      "internalType": "string",
                      "name": "status",
                      "type": "string"
                    },
                    {
                      "internalType": "uint256",
                      "name": "code",
                      "type": "uint256"
                    },
                    {
                      "internalType": "bool",
                      "name": "exists",
                      "type": "bool"
                    }
                  ],
                  "internalType": "struct ServReqContract.Procedure",
                  "name": "eligibleTransplant",
                  "type": "tuple"
                },
                {
                  "internalType": "bool",
                  "name": "exists",
                  "type": "bool"
                }
              ],
              "internalType": "struct ServReqContract.MedicationRequest",
              "name": "immunoTherapyItem",
              "type": "tuple"
            }
          ],
          "internalType": "struct ServReqContract.CoverageEligibilityRequest",
          "name": "req",
          "type": "tuple"
        },
        {
          "components": [
            {
              "internalType": "string",
              "name": "insurer",
              "type": "string"
            },
            {
              "internalType": "string",
              "name": "class",
              "type": "string"
            },
            {
              "internalType": "string",
              "name": "status",
              "type": "string"
            },
            {
              "internalType": "bool",
              "name": "exists",
              "type": "bool"
            }
          ],
          "internalType": "struct ServReqContract.Coverage[]",
          "name": "coverages",
          "type": "tuple[]"
        }
      ],
      "name": "externalServiceResponse2",
      "outputs": [],
      "stateMutability": "nonpayable",
      "type": "function"
    }
  ],
  "bytecode": "0x608060405234801561001057600080fd5b50611b07806100206000396000f3fe608060405234801561001057600080fd5b50600436106100415760003560e01c8063049c493f146100465780632039556a14610062578063c22d725a1461007e575b600080fd5b610060600480360381019061005b91906115ed565b61009a565b005b61007c60048036038101906100779190611665565b6102b9565b005b610098600480360381019061009391906116ae565b610491565b005b60005b81518110156102b45760008282815181106100bb576100ba611726565b5b602002602001015190507f9651c33eb23976f7c15240e86443dc2ded40546fa9ba457a14abab4090e023b581604001516040516020016100fb91906117cf565b6040516020818303038152906040528051906020012014801561016757507f90f2283f05cd1bf6bfc18816cac0883ed8cba4b8d071671ed37de9e486313728816000015160405160200161014f91906117cf565b60405160208183030381529060405280519060200120145b801561021057507f824a601788f3d0a04585f55a613ffaffd162509f93b945ef80b0918440d34af181602001516040516020016101a491906117cf565b60405160208183030381529060405280519060200120148061020f57507faeb1c7f1ea383f614deeaebcd1cd2351fe19636459bd64a068e4dabd7d13e68881602001516040516020016101f791906117cf565b60405160208183030381529060405280519060200120145b5b156102a05760006040518060400160405280866060015181526020016040518060400160405280600881526020017f636f6d706c65746500000000000000000000000000000000000000000000000081525081525090507fcb061239636aa16e3b8e80ed7484bf7b7407a5dbe213deb99f7472362926b6ac816040516102969190611a38565b60405180910390a1505b5080806102ac90611a89565b91505061009d565b505050565b7f9abeb3b79933c80ba266c7bfae4e1552e05b2e8f4b11e956d6d744b05e5b613e81600001516040516020016102ef91906117cf565b60405160208183030381529060405280519060200120036103705760005b81602001515181101561036e5760008260200151828151811061033357610332611726565b5b602002602001015190506103468161078a565b1561035a578083606001819052505061036e565b50808061036690611a89565b91505061030d565b505b8060600151604001511561048e5761048d60016040518060400160405280600981526020017f6d79666869722e636100000000000000000000000000000000000000000000008152506040518060400160405280600581526020017f436c61696d000000000000000000000000000000000000000000000000000000815250604051806040016040528060405180604001604052806040518060400160405280600781526020017f7375626a65637400000000000000000000000000000000000000000000000000815250815260200188604001516000015181525081526020016040518060400160405280604051806020016040528060008152508152602001604051806020016040528060008152508152508152508561083d565b5b50565b60005b81518110156106065760008282815181106104b2576104b1611726565b5b602002602001015190507f6216ba39af4188a6d7c765710d7e6075007c3444b59a22a973d1b958c43e60bb8160000151600001516040516020016104f691906117cf565b60405160208183030381529060405280519060200120148015610524575063049e05ad816000015160200151145b801561057d57507f90f2283f05cd1bf6bfc18816cac0883ed8cba4b8d071671ed37de9e48631372881602001516000015160405160200161056591906117cf565b60405160208183030381529060405280519060200120145b80156105d657507fcfcc7af9aadf661b705571c7fafa14e2be11ee3e19c15353fbafe7a9398936b08160200151602001516040516020016105be91906117cf565b60405160208183030381529060405280519060200120145b156105f257806000015184606001516020018190525050610606565b5080806105fe90611a89565b915050610494565b5081606001516040015180156106255750816060015160200151604001515b156107865761078560026040518060400160405280600981526020017f6d79666869722e636100000000000000000000000000000000000000000000008152506040518060400160405280600881526020017f436f766572616765000000000000000000000000000000000000000000000000815250604051806040016040528060405180604001604052806040518060400160405280600c81526020017f706f6c696379486f6c64657200000000000000000000000000000000000000008152508152602001896040015160000151815250815260200160405180604001604052806040518060400160405280600681526020017f737461747573000000000000000000000000000000000000000000000000000081525081526020016040518060400160405280600681526020017f61637469766500000000000000000000000000000000000000000000000000008152508152508152508661083d565b5b5050565b600080600090505b826000015151811015610832576000836000015182815181106107b8576107b7611726565b5b602002602001015190507fea48aece6309b5bdb21bc9243432ce946d44ff76bd4b2246efe82624ebe08bf481600001516040516020016107f891906117cf565b604051602081830303815290604052805190602001200361081e57600192505050610838565b50808061082a90611a89565b915050610792565b50600090505b919050565b60018503610a1557600060405180606001604052806040518060400160405280600981526020017f636f6d706c657465640000000000000000000000000000000000000000000000815250815260200163049e05ad8152602001600115158152509050600060405180608001604052806040518060400160405280600881526020017f4d6564696361726500000000000000000000000000000000000000000000000081525081526020016040518060400160405280600581526020017f506172744100000000000000000000000000000000000000000000000000000081525081526020016040518060400160405280600981526020017f636f6d706c6574656400000000000000000000000000000000000000000000008152508152602001600115158152509050600060405180606001604052808481526020018381526020016001151581525090506000600167ffffffffffffffff8111156109a6576109a5610c18565b5b6040519080825280602002602001820160405280156109df57816020015b6109cc610b72565b8152602001906001900390816109c45790505b50905081816000815181106109f7576109f6611726565b5b6020026020010181905250610a0c8582610491565b50505050610b6b565b60028503610b6a57600060405180608001604052806040518060400160405280600881526020017f4d6564696361726500000000000000000000000000000000000000000000000081525081526020016040518060400160405280600581526020017f506172744400000000000000000000000000000000000000000000000000000081525081526020016040518060400160405280600681526020017f616374697665000000000000000000000000000000000000000000000000000081525081526020016001151581525090506000600167ffffffffffffffff811115610b0157610b00610c18565b5b604051908082528060200260200182016040528015610b3a57816020015b610b27610ba1565b815260200190600190039081610b1f5790505b5090508181600081518110610b5257610b51611726565b5b6020026020010181905250610b67838261009a565b50505b5b5050505050565b6040518060600160405280610b85610bcb565b8152602001610b92610ba1565b81526020016000151581525090565b60405180608001604052806060815260200160608152602001606081526020016000151581525090565b604051806060016040528060608152602001600081526020016000151581525090565b6000604051905090565b600080fd5b600080fd5b600080fd5b6000601f19601f8301169050919050565b7f4e487b7100000000000000000000000000000000000000000000000000000000600052604160045260246000fd5b610c5082610c07565b810181811067ffffffffffffffff82111715610c6f57610c6e610c18565b5b80604052505050565b6000610c82610bee565b9050610c8e8282610c47565b919050565b600080fd5b600080fd5b600080fd5b600067ffffffffffffffff821115610cbd57610cbc610c18565b5b610cc682610c07565b9050602081019050919050565b82818337600083830152505050565b6000610cf5610cf084610ca2565b610c78565b905082815260208101848484011115610d1157610d10610c9d565b5b610d1c848285610cd3565b509392505050565b600082601f830112610d3957610d38610c98565b5b8135610d49848260208601610ce2565b91505092915050565b600067ffffffffffffffff821115610d6d57610d6c610c18565b5b602082029050602081019050919050565b600080fd5b600067ffffffffffffffff821115610d9e57610d9d610c18565b5b602082029050602081019050919050565b60008115159050919050565b610dc481610daf565b8114610dcf57600080fd5b50565b600081359050610de181610dbb565b92915050565b600060408284031215610dfd57610dfc610c02565b5b610e076040610c78565b9050600082013567ffffffffffffffff811115610e2757610e26610c93565b5b610e3384828501610d24565b6000830152506020610e4784828501610dd2565b60208301525092915050565b6000610e66610e6184610d83565b610c78565b90508083825260208201905060208402830185811115610e8957610e88610d7e565b5b835b81811015610ed057803567ffffffffffffffff811115610eae57610ead610c98565b5b808601610ebb8982610de7565b85526020850194505050602081019050610e8b565b5050509392505050565b600082601f830112610eef57610eee610c98565b5b8135610eff848260208601610e53565b91505092915050565b6000819050919050565b610f1b81610f08565b8114610f2657600080fd5b50565b600081359050610f3881610f12565b92915050565b600060608284031215610f5457610f53610c02565b5b610f5e6060610c78565b9050600082013567ffffffffffffffff811115610f7e57610f7d610c93565b5b610f8a84828501610d24565b6000830152506020610f9e84828501610f29565b6020830152506040610fb284828501610dd2565b60408301525092915050565b600060608284031215610fd457610fd3610c02565b5b610fde6060610c78565b9050600082013567ffffffffffffffff811115610ffe57610ffd610c93565b5b61100a84828501610eda565b600083015250602082013567ffffffffffffffff81111561102e5761102d610c93565b5b61103a84828501610f3e565b602083015250604061104e84828501610dd2565b60408301525092915050565b600061106d61106884610d52565b610c78565b905080838252602082019050602084028301858111156110905761108f610d7e565b5b835b818110156110d757803567ffffffffffffffff8111156110b5576110b4610c98565b5b8086016110c28982610fbe565b85526020850194505050602081019050611092565b5050509392505050565b600082601f8301126110f6576110f5610c98565b5b813561110684826020860161105a565b91505092915050565b600067ffffffffffffffff82111561112a57611129610c18565b5b602082029050602081019050919050565b60006080828403121561115157611150610c02565b5b61115b6080610c78565b9050600082013567ffffffffffffffff81111561117b5761117a610c93565b5b61118784828501610d24565b600083015250602082013567ffffffffffffffff8111156111ab576111aa610c93565b5b6111b784828501610d24565b602083015250604082013567ffffffffffffffff8111156111db576111da610c93565b5b6111e784828501610d24565b60408301525060606111fb84828501610dd2565b60608301525092915050565b60006060828403121561121d5761121c610c02565b5b6112276060610c78565b9050600082013567ffffffffffffffff81111561124757611246610c93565b5b61125384828501610f3e565b600083015250602082013567ffffffffffffffff81111561127757611276610c93565b5b6112838482850161113b565b602083015250604061129784828501610dd2565b60408301525092915050565b60006112b66112b18461110f565b610c78565b905080838252602082019050602084028301858111156112d9576112d8610d7e565b5b835b8181101561132057803567ffffffffffffffff8111156112fe576112fd610c98565b5b80860161130b8982611207565b855260208501945050506020810190506112db565b5050509392505050565b600082601f83011261133f5761133e610c98565b5b813561134f8482602086016112a3565b91505092915050565b600067ffffffffffffffff82111561137357611372610c18565b5b602082029050602081019050919050565b600061139761139284611358565b610c78565b905080838252602082019050602084028301858111156113ba576113b9610d7e565b5b835b8181101561140157803567ffffffffffffffff8111156113df576113de610c98565b5b8086016113ec898261113b565b855260208501945050506020810190506113bc565b5050509392505050565b600082601f8301126114205761141f610c98565b5b8135611430848260208601611384565b91505092915050565b60006080828403121561144f5761144e610c02565b5b6114596080610c78565b9050600082013567ffffffffffffffff81111561147957611478610c93565b5b61148584828501610d24565b600083015250602082013567ffffffffffffffff8111156114a9576114a8610c93565b5b6114b58482850161132a565b602083015250604082013567ffffffffffffffff8111156114d9576114d8610c93565b5b6114e58482850161140b565b60408301525060606114f984828501610dd2565b60608301525092915050565b60006080828403121561151b5761151a610c02565b5b6115256080610c78565b9050600082013567ffffffffffffffff81111561154557611544610c93565b5b61155184828501610d24565b600083015250602082013567ffffffffffffffff81111561157557611574610c93565b5b611581848285016110e1565b602083015250604082013567ffffffffffffffff8111156115a5576115a4610c93565b5b6115b184828501611439565b604083015250606082013567ffffffffffffffff8111156115d5576115d4610c93565b5b6115e184828501610fbe565b60608301525092915050565b6000806040838503121561160457611603610bf8565b5b600083013567ffffffffffffffff81111561162257611621610bfd565b5b61162e85828601611505565b925050602083013567ffffffffffffffff81111561164f5761164e610bfd565b5b61165b8582860161140b565b9150509250929050565b60006020828403121561167b5761167a610bf8565b5b600082013567ffffffffffffffff81111561169957611698610bfd565b5b6116a584828501611505565b91505092915050565b600080604083850312156116c5576116c4610bf8565b5b600083013567ffffffffffffffff8111156116e3576116e2610bfd565b5b6116ef85828601611505565b925050602083013567ffffffffffffffff8111156117105761170f610bfd565b5b61171c8582860161132a565b9150509250929050565b7f4e487b7100000000000000000000000000000000000000000000000000000000600052603260045260246000fd5b600081519050919050565b600081905092915050565b60005b8381101561178957808201518184015260208101905061176e565b83811115611798576000848401525b50505050565b60006117a982611755565b6117b38185611760565b93506117c381856020860161176b565b80840191505092915050565b60006117db828461179e565b915081905092915050565b600081519050919050565b600082825260208201905092915050565b6000819050602082019050919050565b600082825260208201905092915050565b600061182e82611755565b6118388185611812565b935061184881856020860161176b565b61185181610c07565b840191505092915050565b61186581610daf565b82525050565b600060408301600083015184820360008601526118888282611823565b915050602083015161189d602086018261185c565b508091505092915050565b60006118b4838361186b565b905092915050565b6000602082019050919050565b60006118d4826117e6565b6118de81856117f1565b9350836020820285016118f085611802565b8060005b8581101561192c578484038952815161190d85826118a8565b9450611918836118bc565b925060208a019950506001810190506118f4565b50829750879550505050505092915050565b61194781610f08565b82525050565b6000606083016000830151848203600086015261196a8282611823565b915050602083015161197f602086018261193e565b506040830151611992604086018261185c565b508091505092915050565b600060608301600083015184820360008601526119ba82826118c9565b915050602083015184820360208601526119d4828261194d565b91505060408301516119e9604086018261185c565b508091505092915050565b60006040830160008301518482036000860152611a11828261199d565b91505060208301518482036020860152611a2b8282611823565b9150508091505092915050565b60006020820190508181036000830152611a5281846119f4565b905092915050565b7f4e487b7100000000000000000000000000000000000000000000000000000000600052601160045260246000fd5b6000611a9482610f08565b91507fffffffffffffffffffffffffffffffffffffffffffffffffffffffffffffffff8203611ac657611ac5611a5a565b5b60018201905091905056fea2646970667358221220f26db4cd0d2cf1b0198a11a5614b31e2585a423082882ea9ee8926adfe878f9264736f6c634300080d0033",
  "immutableReferences": {},
  "source": "// SPDX-License-Identifier: MIT\npragma solidity ^0.8.0;\npragma abicoder v2;\n\ncontract ServReqContract {\n\t\n    struct CoverageEligibilityRequest {\n        string purpose;\n        MedicationRequest[] item;\n        Patient patient;\n\n        MedicationRequest immunoTherapyItem;\n    }\n\n    struct MedicationRequest {\n        Medication[] medication;\n\n        Procedure eligibleTransplant;\n\n        bool exists;\n    }\n\n    struct Medication {\n        string concept;\n\n        bool exists;\n    }\n\n    struct Patient {\n        string id;\n        Claim[] subjectOf;\n        Coverage[] policyHolderOf;\n\n        bool exists;\n    }\n\n    struct Claim {\n        Procedure procedure;\n        Coverage insurance;\n    \n        bool exists;\n    }\n\n    struct Procedure {\n        string status;\n        uint256 code;\n\n        bool exists;\n    }\n\n    struct Coverage {\n        string insurer;\n        string class;\n        string status;\n\n        bool exists;\n    }\n\n    struct CoverageEligibilityResponse {\n        MedicationRequest request;\n        string outcome;\n    }\n\t\n    // error:\n    // UnimplementedFeatureError: Copying of type struct memory[] memory to storage not yet supported.\n    // CoverageEligibilityRequest reqField;\n\n    constructor() {\n\t}\n\t\n\t// event Response(uint number);\n    // event Response(string msg);\n    event Response(CoverageEligibilityResponse response);\n\n\t// function execute(uint256 input) public {\n        // if (input > 1) {\n        //     emit RecommendDiabetesScreening(block.timestamp);\n        // }\n    // function execute(string memory input) public {\n    //     emit RecommendDiabetesScreening(input);\n\n    // function execute(CoverageEligibilityRequest memory input) public {\n    //     if (input.number > 1) {\n    //         emit RecommendDiabetesScreening(input.number);\n    //     }\n\n    function check0(MedicationRequest memory item) pure private returns (bool) {\n        for (uint i = 0; i < item.medication.length; i++) {\n            Medication memory med = item.medication[i];\n            if (keccak256(abi.encodePacked(med.concept)) == keccak256(\"DBCAT005063\")) {\n                return true;\n            }\n        }\n        return false;\n    }\n\n    function execute(CoverageEligibilityRequest memory req) public {\n        // reqField = req;\n\n        if (keccak256(abi.encodePacked(req.purpose)) == keccak256(\"validation\")) {\n            for (uint i = 0; i < req.item.length; i++) {\n                MedicationRequest memory item = req.item[i];\n                if (check0(item)) {\n                    req.immunoTherapyItem = item;\n                    break;\n                }\n            }\n        }\n\n        if (req.immunoTherapyItem.exists) {\n            externalServiceRequest(1, \"myfhir.ca\", \"Claim\", [ [ \"subject\", req.patient.id ], [ \"\", \"\" ] ], req);\n        }\n\t}\n\n    function externalServiceResponse1(CoverageEligibilityRequest memory req, Claim[] memory claims) public {\n        for (uint i = 0; i < claims.length; i++) {\n            Claim memory claim = claims[i];\n\n            if (keccak256(abi.encodePacked(claim.procedure.status)) == keccak256(\"completed\") &&\n                claim.procedure.code == 77465005 && \n                keccak256(abi.encodePacked(claim.insurance.insurer)) == keccak256(\"Medicare\") &&\n                keccak256(abi.encodePacked(claim.insurance.class)) == keccak256(\"PartA\")\n            ) {\n                req.immunoTherapyItem.eligibleTransplant = claim.procedure;\n                break;\n            }\n        }\n\n        if (req.immunoTherapyItem.exists && \n            req.immunoTherapyItem.eligibleTransplant.exists) {\n\n                externalServiceRequest(2, \"myfhir.ca\", \"Coverage\", [ [ \"policyHolder\", req.patient.id ], [ \"status\", \"active\" ] ], req);\n            }\n    }\n\n    function externalServiceResponse2(CoverageEligibilityRequest memory req, Coverage[] memory coverages) public {\n        for (uint i = 0; i < coverages.length; i++) {\n            Coverage memory cov = coverages[i];\n\n            if (keccak256(abi.encodePacked(cov.status)) == keccak256(\"active\") && \n                keccak256(abi.encodePacked(cov.insurer)) == keccak256(\"Medicare\") &&\n                (keccak256(abi.encodePacked(cov.class)) == keccak256(\"PartB\") || keccak256(abi.encodePacked(cov.class)) == keccak256(\"PartD\"))\n            ) {\n                CoverageEligibilityResponse memory response = CoverageEligibilityResponse({ request: req.immunoTherapyItem, outcome: 'complete' });\n                emit Response(response);\n            }\n        }\n    }\n\n    function externalServiceRequest(uint256 id, string memory url, string memory typeParam, string[2][2] memory parameters, CoverageEligibilityRequest memory req) private {\n        if (id == 1) {\n            Procedure memory proc = Procedure({ status: \"completed\", code: 77465005, exists: true });\n            Coverage memory cov = Coverage({ insurer: \"Medicare\", class: \"PartA\", status: \"completed\", exists: true });\n            Claim memory claim = Claim({ procedure: proc, insurance: cov, exists: true });\n\n            Claim[] memory claims = new Claim[](1);\n            claims[0] = claim;\n\n            externalServiceResponse1(req, claims);\n\n        } else if (id == 2) {\n            Coverage memory cov = Coverage({ insurer: \"Medicare\", class: \"PartD\", status: \"active\", exists: true });\n\n            Coverage[] memory coverages = new Coverage[](1);\n            coverages[0] = cov;\n\n            externalServiceResponse2(req, coverages);\n        }\n    }\n}",
  "sourcePath": "/Users/wvw/git/n3/blockiot-cds/example_oracle/contract/contracts/ServReqContract.sol",
  "compiler": {
    "name": "solc",
    "version": "0.8.13+commit.abaa5c0e.Emscripten.clang"
  },
  "schemaVersion": "3.4.16",
  "updatedAt": "2023-11-08T15:33:14.556Z",
  "devdoc": {
    "kind": "dev",
    "methods": {},
    "version": 1
  },
  "userdoc": {
    "kind": "user",
    "methods": {},
    "version": 1
  }
}